:020000040800F2
:10000000F808002081020008B7320008EF2A000833
:10001000B5320008B1070008373C000800000000B6
:1000200000000000000000000000000093360008FF
:10003000B307000800000000B93200089536000838
:100040009B0200089B0200089B0200089B0200081C
:100050009B0200089B0200089B0200089B0200080C
:100060009B0200089B0200089B0200089B020008FC
:100070009B0200089B0200089B0200089B020008EC
:100080009B020008000000009B0200089B02000881
:100090009B0200089B0200089B0200089B020008CC
:1000A0009B0200089B0200089B0200089B020008BC
:1000B000153700089B0200089B0200089B020008FD
:1000C0009B0200089B0200089B0200089B0200089C
:1000D0009B0200089B0200089B0200089B0200088C
:1000E0009B0200089B0200089B0200089B0200087C
:1000F0009B0200089B0200089B0200080000000011
:10010000000000009B020008000000009B020008A5
:100110009B020008000000009B0200089B020008F0
:100120009B0200089B0200089B0200089B0200083B
:100130009B02000800000000000000009B02000875
:100140009B0200089B020008000000000000000065
:10015000000000000000000000000000000000009F
:100160000000000000000000000000009B020008EA
:100170009B020008000000000000000000000000DA
:10018000000000009B0200080000000000000000CA
:10019000000000000000000000000000000000005F
:1001A00000000000000000009B0200089B02000805
:1001B0009B0200089B0200089B0200080000000050
:1001C000000000009B02000800000000000000008A
:1001D0009B0200089B02000800F002F800F041F8C2
:1001E0000AA090E8000C82448344AAF10107DA4592
:1001F00001D100F036F8AFF2090EBAE80F0013F0A3
:10020000010F18BFFB1A43F0010318473C5A0000C6
:100210005C5A0000103A24BF78C878C1FAD8520757
:1002200024BF30C830C144BF04680C607047000070
:100230000023002400250026103A28BF78C1FBD8EF
:10024000520728BF30C148BF0B607047642900F0D7
:100250007380002070471FB504F0F8FB1FBD10B578
:1002600010BD00F014FA1146FFF7F5FF04F08EF808
:1002700000F032FA03B4FFF7F2FF03BC00F03AFAE1
:100280000948804709480047FEE7FEE7FEE7FEE72A
:10029000FEE7FEE7FEE7FEE7FEE7FEE70448054966
:1002A000054A064B7047000005370008D9010008D1
:1002B000F8020020F8080020F8040020F8040020CC
:1002C0000FB41CB5074B06AA7B44694600900598FD
:1002D00000F0C5F90020694600F0D4F91CBC5DF8B7
:1002E00014FB0000B903000070B50446856900687E
:1002F000C10601D5302600E02026C00707D070BD1A
:10030000D4E9012130469047206A401C20626D1ECE
:10031000F6D570BD70B5044685690078C00707D171
:1003200070BDD4E9012120209047206A401C206242
:100330006D1EF6D570BD00002DE9F0410646002483
:1003400010687529314616A510D0AFF3008000283B
:1003500002DA404213A507E031688A0701D512A5E9
:1003600002E0490704D511A5012401E0AFF30080A4
:1003700000210A2206F1240709E0B0FBF2FCB0FBE1
:10038000F2F302FB1C00303078541846491C002858
:10039000F3D123462A463046BDE8F04100F000B9CB
:1003A000000000002D0000002B00000020000000D5
:1003B0002DE9F05F894604464FF0000ADFF824B1CA
:1003C000FB44C0F820A02046E168884700287DD083
:1003D000252806D0D4E901219047206A401C2062DC
:1003E000F1E700255F462046E16888472028064659
:1003F00007DB312E05D2B81910F8200C08B10543DF
:10040000F1E7A80701D525F00405C4F81CA00027D2
:10041000C4F818A02A2E09D0304603F01DFC38B3CA
:1004200004EB8708303EC8F8186019E059F8041B3F
:10043000204604EB87029161E1688847012F064658
:1004400018D1E069002820DA25F020051DE0D8F851
:10045000180000EB800006EB40003038C8F81800A8
:100460002046E1688847064603F0F6FB0028EED1F7
:10047000012F0AD02E2E08D12046E16888477F1C24
:100480000646022F45F02005C4DBA069002803DAE8
:10049000404245F00105A061E80701D025F01005B4
:1004A000A6B1A6F14100192802D8203645F400650E
:1004B0004A463146204625604D46FFF7C7FE60B1EB
:1004C000012807D0ED1D25F0070000E007E000F14E
:1004D000080978E705F1040975E730467AE7206AEC
:1004E000BDE8F09F7258000010B5203AC0F00B80B4
:1004F000B1E81850203AA0E81850B1E81850A0E828
:100500001850BFF4F5AF5FEA027C24BFB1E8185081
:10051000A0E8185044BF18C918C0BDE810405FEAF1
:10052000827C24BF51F8043B40F8043B08BF70476D
:10053000D20728BF31F8023B48BF11F8012B28BF72
:1005400020F8023B48BF00F8012B70474FF0000233
:1005500000B5134694469646203922BFA0E80C50B9
:10056000A0E80C50B1F12001BFF4F7AF090728BF94
:10057000A0E80C5048BF0CC05DF804EB890028BF10
:1005800040F8042B08BF704748BF20F8022B11F039
:10059000804F18BF00F8012B7047704770477047B5
:1005A0002DE9F0470D4699469246044600F124088D
:1005B0000168880604D5E06921F01001216000E09F
:1005C0000120A84201DD471B00E00027A1697A193C
:1005D00002EB0900081AA0612078C00602D4204668
:1005E000FFF782FE002608E0D4E901211AF8060090
:1005F0009047206A401C761C20624E45F4DB207830
:10060000C0060AD52046FFF76FFE06E0D4E90121B7
:1006100030209047206A401C2062381EA7F1010755
:10062000F4DC07E0D4E9012118F805009047206ABE
:10063000401C2062281EA5F10105F3DC2046FFF7CF
:1006400069FE2078000602D50220BDE8F08701206F
:10065000FBE7000001694A1C02610878704700B599
:100660008FB0CDE901310021059105497944CDE9EB
:10067000031011466846FFF79BFE0FB000BD000057
:10068000E5FFFFFF0A6802F8010B0A607047754634
:1006900000F02CF8AE4605006946534620F00700EE
:1006A000854618B020B5FFF7F9FDBDE820404FF0B2
:1006B00000064FF000074FF000084FF0000B21F04C
:1006C0000701AC46ACE8C009ACE8C009ACE8C00919
:1006D000ACE8C0098D46704710B50446AFF3008002
:1006E0002046BDE81040FFF7C5BD00000048704738
:1006F0009802002001491820ABBEFEE72600020048
:1007000070470000F8B5044600200090206881681A
:1007100011F0010F41D18168214A11422ED1816827
:10072000D5432940491C81601E48806800F0E07074
:1007300000020DD51C481D490068B0FBF1F0401CBB
:1007400000EB4000800000E0401E00900028FBD13C
:1007500000F0E8FD06461BE0816811F0010F03D1AF
:1007600081682940491C816000F0DCFD801B022863
:100770000ED920680068C043C00709D0E06D40F082
:100780001000E065206E40F0010020660120F8BDF9
:1007900020680168C943C907DED10020F8BD000008
:1007A0003F0000800003005010000020400D0300B7
:1007B000FEE77047002240F6B83306E00021491CEE
:1007C00089B29942FBD3521C92B28242F6D370474F
:1007D00072B6FEE72DE9F047044690F858009CB049
:1007E0000E464FF00009012815D0012084F858006A
:1007F00000251795189520684FF0A04840450ED168
:10080000284F0097384602F05DFB8246206802F0D0
:1008100059FB60B10EE002201CB0BDE8F087E06D2E
:1008200040F02000E06584F858500120F4E7BAF168
:10083000000F09D0E06D40F02000E0654FF00109A5
:1008400084F858504846E7E71748326840F61F7169
:10085000002A826822F4604216D094F8383042EAC6
:10086000433273681A438260D8F80820BB6802F0EC
:10087000010203F001031A43E2D1B36832681A435C
:1008800083688B431A430BE08260D8F80820BB686A
:1008900002F0010203F001031A43D1D182688A43B6
:1008A0008260CDE700010050000300502DE9F84FB1
:1008B00000270446009790F85800DFF8E0930D46B3
:1008C000B846012811D0012684F85860206802F04B
:1008D000F5FA60B1E06D40F02000E0655FF00107DF
:1008E00084F858803846BDE8F88F0220FBE7D5E948
:1008F00000210C23206803EA91131844036B01F0D4
:100900001F014FF01F0C0CFA01FCC2F3846223EAB2
:100910000C038A4013430363206802F0CFFA824637
:10092000206802F0C7FA5AEA00003CD1AA68296898
:100930002068B2F1004F37D002F0C8FA2068416950
:1009400021F00041416120686969C268C2F3C102B7
:10095000520091402A69042A31D000EB82002B68B2
:10096000026EDFF83CC303F0F84302EA0C020B43CB
:100970001A4342F00041016620682A69A96900EB28
:100980008200026E22F080720A430266297F22688A
:100990002869012910D0002102EB8000026E22F0AC
:1009A00000720A4302667DE0002202F08FFA20689E
:1009B000416941F00041C5E74FF00071ECE70021CB
:1009C00002F072FA400320684FF0000172D002F08A
:1009D0006BFA90FAA0F0B0FA80F1286842036ED06A
:1009E00090FAA0F0B0FA80F0814204D100221146C2
:1009F000206802F07AFA0121206802F055FA4003DB
:100A000020684FF001015DD002F04EFA90FAA0F09C
:100A1000B0FA80F12868420359D090FAA0F0B0FAF9
:100A200080F0814204D100220121206802F05DFAA9
:100A30000221206802F038FA400320684FF00201DA
:100A400048D002F031FA90FAA0F0B0FA80F12868AC
:100A5000420344D090FAA0F0B0FA80F0814204D171
:100A600000220221206802F040FA0321206802F0EF
:100A70001BFA400320684FF0030133D002F014FA50
:100A800090FAA0F0B0FA80F1286842032FD090FAD3
:100A9000A0F0B0FA80F0814204D100220321206846
:100AA00002F023FA2068816811F0010F22D0ACE037
:100AB00000E004E002F0F8F9C0F384618DE7C0F3D0
:100AC000846091E702F0F0F9C0F38461A2E7C0F31B
:100AD0008460A6E702F0E8F9C0F38461B7E7C0F3E9
:100AE0008460BBE702F0E0F9C0F38461CCE7C0F3B7
:100AF0008460D0E72A7B296850F8B03FC1F3120C1C
:100B000023EA0C0302F0180C664A22FA0CF20A409F
:100B100013430360E968494577D1286841031CD035
:100B200090FAA0F1B1FA81F1491C01F01F010929E5
:100B30004FEA403132D8002912D000BF90FAA0F11C
:100B4000B1FA81F101F1010101F01F0106FA01F68C
:100B500009D100BFC0F3846109E0C0F38461E3E719
:100B6000C0F38461EEE790FAA0F1B1FA81F101F1EE
:100B7000010101F01F0146EA816102D1C0F38460E6
:100B800003E090FAA0F0B0FA80F000F1010000F06C
:100B90001F0000EB400041EA005132E000290ED076
:100BA00090FAA0F1B1FA81F101F1010101F01F0108
:100BB00006FA01F606D100BFC0F3846106E0C0F377
:100BC0008461F1E790FAA0F1B1FA81F101F101013C
:100BD00001F01F0146EA816102D1C0F3846003E0A5
:100BE00090FAA0F0B0FA80F000F1010000F01F00D0
:100BF0002D4A00EB400002EB005041EA000141F0B9
:100C00000071AA68206802F061F928482A68024247
:100C10003FF466AE26488168264B01F0E0719A42A7
:100C200002D0254B9A421CD10B021AD42268B2F191
:100C3000A04F7FF455AE826841F4000122F0E072CB
:100C40000A4382601D481E490068B0FBF1F0401C59
:100C500000EB4000800000E0401E00900028FBD127
:100C60003EE6184D184BAA4207D1CD0105D42268A3
:100C70009A42F5D041F0807109E0144DAA42EFD1BB
:100C80004A02EDD422689A42EAD041F48001826897
:100C900022F0E0720A43826022E6000000007F40FA
:100CA00000F0FF03FFFF0700000020FE00000880A7
:100CB00000030050000021C31000C090100000206D
:100CC000400D0300000052C700010050000084CB1B
:100CD0000068006C70470000F8B54FF00005040094
:100CE0002E46009502D0E06D10B107E00120F8BD5E
:100CF000204600F0EBF8266684F85860206881688A
:100D0000C1F3407119B18168684A1140816020685F
:100D10008168C1F3007189B98168654A114041F069
:100D200080518160634864490068B0FBF1F0400085
:100D3000801C00E0401E00900028FBD120688168E4
:100D4000C1F3007141B9E16D41F01001E165216E1F
:100D500041F001012166012502F0B0F8E16DC906FC
:100D600000D430B1E06D40F01000E0650125284668
:100D7000F8BDE06D20F4807040F00200E06520686E
:100D8000806810F0010F11D14FF0A04080684B49EE
:100D900000F00100896801F00101084306D14848CC
:100DA0006168826822F47C120A438260E168E06B29
:100DB000627F0843A16841EA4231084394F8241055
:100DC00040EA0140012904D1218D3E4A02EB414114
:100DD0000843E16A29B101F47871226B014342EAC8
:100DE00001002268D168384B19400143D160206866
:100DF0000169626B21F0406111430161206802F0DA
:100E000059F870BB207F94F83810800340EA410203
:100E10002168C86844F2020398431043C8602069FF
:100E20000028206801690AD041F4803101612068FE
:100E300050F8C01F22696FF30D01114307E021F440
:100E400080310161206850F8C01F6FF30D0101600F
:100E500094F8400001280CD02068016921F00101BC
:100E60000161606901282068016B21F00F0111D038
:100E700013E0D4E911010843D4E9131211430843E4
:100E800021680A6940F2FC739A43104340F0010064
:100E90000861E6E7226A521E11430163E06D20F00B
:100EA000020040F00100E06561E70000C0FFFF5F65
:100EB000C0FFFF7F10000020400D03000001005024
:100EC000000300500000FEFF0740F0FF2DE9F04353
:100ED00097B00446142111A8FFF738FB4421684657
:100EE000FFF734FB4FF0005021682D4D0327DFF84A
:100EF000B49086132C4C4FF00008B1F1A04F10D0E5
:100F00002A4A914248D100960F90684600F008FBAB
:100F100008B1FFF75DFC2868401C2860012824D038
:100F20002BE000960F90684600F0FAFA08B1FFF740
:100F30004FFC2868401C2860012807D1E06C40F471
:100F40000050E064E06C00F400501690E06C40F05B
:100F50000200E064E06C11A900F0020016904FF46A
:100F6000805081E88101484614E0E06C40F4005074
:100F7000E064E06C00F400501690E06C40F0020079
:100F8000E064E06C11AA00F00200169082E8C00153
:100F900011A9484600F098F817B0BDE8F0830000AA
:100FA0000000002000040048001002400001005032
:100FB0002DE9F04104463848806800F01F0520689C
:100FC00001F07CFF18B102210846BDE8F08194F8D9
:100FD000580001280CD0012084F858002046FFF763
:100FE00091FB01004FF0000304D084F85830EBE788
:100FF0000220EAE7E06D40F60162904340F4807021
:10100000E065264A20684FF0A046904201D137465D
:1010100000E00746874200D01DB9E76D27F480172E
:10102000E765E76DFF0404D5276E27F006072766FE
:1010300000E023661C27076084F85830206890423F
:1010400001D1334600E00346834215D0A5B1052DFA
:1010500012D0092D10D0E36D43F48013E365904264
:1010600000D13046C0688001AED5E06D20F400505C
:1010700040F48050E065A7E7C268920105D5E26DB3
:1010800022F4005242F48052E2658268044B1A4016
:10109000121D826098E7000000030050000100501C
:1010A000C0FFFF7F70B5044600F03CF90546601CA8
:1010B00002D004484068044400F034F9401BA042C8
:1010C000FAD370BD040000202DE9F04FDFF8209224
:1010D000002301260324A9F1040B85B00F2709F191
:1010E000040AABF1040EFAE006FA03F52A407CD0BC
:1010F00091F804C00CF0030CBCF1010F02D0BCF15C
:10110000020F26D1D0F808C0CDF800C04FEA430C3A
:1011100004FA0CF8CDF810C0DDF800C02CEA080C79
:10112000CDF800C0D1F80C80DDF810C008FA0CF83A
:10113000DDF800C048EA0C08C0F80880D0F804C008
:101140002CEA050C0D79C5F300159D4045EA0C0508
:1011500045600D79ED43AD070ED0C5684FEA4308F1
:1011600004FA08FC25EA0C05D1F808C00CFA08FCC2
:101170004CEA050CC0F80CC00D7905F00305022DF2
:1011800016D1DD0800EB850CCDF808C0DCF8208016
:101190005D074FEAD56C07FA0CF528EA05080D69DA
:1011A00005FA0CF5DDF808C045EA0805CCF8205032
:1011B00005684FEA430CCDF808C004FA0CFC25EA98
:1011C0000C0591F804C00CF00308DDF808C008FA1B
:1011D0000CF848EA0508C0F800804D6815F4403F57
:1011E0007CD0444DD5F860C000E077E04CF0010CB5
:1011F000C5F860C02D6E23F0030C05F001050095C5
:101200003D4D65440295AD684FEA837C4FEA1C78FA
:1012100007FA08FC25EA0C05B0F1904F06D0DFF87C
:10122000DCC0604505D14FF0010C20E04FF0000C10
:101230001DE0DFF8CCC0604502D14FF0020C16E093
:10124000DFF8C0C0604502D14FF0030C0FE0DFF8BB
:10125000B8C0604502D14FF0040C08E0DFF8ACC024
:10126000604502D14FF0050C01E04FF0060C0CFA7E
:1012700008FC4CEA050C029DC5F808C0D9F80050DE
:10128000CC46D1F8048095435FEAC82800D51543C1
:10129000CCF80050DAF80050D446D1F804809543D9
:1012A0005FEA882800D51543CCF80050DBF80050E1
:1012B000DC46D1F8048095435FEA883800D51543B1
:1012C000CCF80050DEF80050F446D1F80480954385
:1012D0005FEAC83800D51543CCF800505B1C0A689B
:1012E00032FA03F57FF400AF05B0BDE8F08F0000DF
:1012F00008040140001002400000014000040048C2
:1013000000080048000C0048001000480014004885
:101310000069084000D0012070470AB18161704720
:101320008162704701488068704700000400002017
:1013300002488168426811448160704704000020BF
:1013400010B50024032000F073F80F2000F008F817
:1013500008B1012401E000F025F8204610BD00008E
:1013600070B50E4E05460024706898B14FF47A713E
:10137000B1FBF0F00A490968B1FBF0F000F0D4FECF
:1013800040B9102D06D200222946501E00F030F838
:10139000356000E00124204670BD000004000020FC
:1013A000100000200A4882B0016E41F00101016680
:1013B000016E01F001010091816D41F08051816564
:1013C000806D00F08050009002B000F0A1B80000E5
:1013D00000100240002809DB00F01F0201219140AB
:1013E0004009800000F1E020C0F8001170470000C3
:1013F000F0B40E4B1B680C46C3F30223C3F1070580
:10140000042D00D90425191D072901D2002300E06D
:10141000DB1E012606FA05F1491E214099409E4037
:10142000761E16403143F0BC02F006BC0CED00E025
:10143000064900F0070208684FF6FF03184040EA2B
:101440000220034A10430860704700000CED00E0E2
:101450000000FA052B492C4B0A6832214A432B49DC
:1014600040B1B0F5007F086829D020F4C06040F496
:1014700080602CE00868C0F34120022804D051F8B5
:10148000800F20F4807022E0D1F8800020F480707A
:10149000C1F88000086820F4C06040F40070086063
:1014A000B2FBF3F0401C00E0401E4A69520501D532
:1014B0000028F9D1486940050AD503207047C0F3D8
:1014C0004120022806D051F8800F40F48070086057
:1014D00000207047D1F8800040F48070C1F880008F
:1014E000086820F4C06040F400700860B2FBF3F0BC
:1014F000401C00E0401E4A695205DBD50028F9D1A6
:10150000D8E700001000002040420F0000700040AB
:101510000248816841F4804181607047007000405A
:101520002DE9F8430446006800269D4D00035ED572
:10153000A86D0027C00008D4A86D40F08050A865B1
:10154000A86D012700F080500090DFF85892D9F87C
:10155000001041F48071C9F80010FFF7E3FE8046E7
:1015600006E000BFFFF7DEFEA0EB080002282BD844
:10157000D9F80000C005F5D5D5F8900010F44070FA
:1015800014D0216C814211D0D5F89000D5F890107C
:1015900020F4407041F48031C5F89010D5F89010D7
:1015A00021F48031C5F89010C5F89000C00711D023
:1015B000FFF7B8FE804641F2883907E0FFF7B2FE38
:1015C000A0EB0801494501D903260BE0D5F89000AE
:1015D0008007F3D5D5F89000216C20F440700843C3
:1015E000C5F890001FB1A86D20F08050A865207844
:1015F000C00707D0D5F88800616820F003000843D1
:10160000C5F888002078800707D5D5F88800A1683C
:1016100020F00C000843C5F888002078400707D563
:10162000D5F88800E16820F030000843C5F888004C
:101630002078000707D5D5F88800216920F0C00080
:101640000843C5F888002078800607D5D5F88800BB
:10165000616920F440600843C5F88800207840069E
:1016600007D5D5F88800A16920F440500843C5F893
:1016700088002078000607D5D5F88800E16920F4B5
:1016800040400843C5F888002088C00507D5D5F834
:101690008800216A20F440300843C5F8880020887B
:1016A000800507D5D5F88800616A20F440200843FA
:1016B000C5F88800208840050FD5D5F88800A16AB4
:1016C00020F440100843C5F88800A06AB0F5801FD8
:1016D00003D1E86840F48010E860208800050FD549
:1016E000D5F88800E16A20F440000843C5F8880076
:1016F000E06AB0F5800F03D1E86840F48010E8603C
:101700002088C0040FD5D5F88800216B20F04070E8
:101710000843C5F88800206BB0F1807F03D1E868EA
:1017200040F48010E86020884FF0006180040ED5FE
:10173000D5F88800626B20F040601043C5F888003F
:10174000606B884203D1E86840F48010E86020882C
:1017500040040ED5D5F88800A26B20F040601043FD
:10176000C5F88800A06B884203D1E86840F4801077
:10177000E860208800040FD5D5F88800E16B20F0E0
:1017800040500843C5F88800E06BB0F1805F03D19A
:10179000E86840F48030E8603046BDE8F883000037
:1017A00000100240007000402DE9F0470E46050091
:1017B0004FF0000725D0DFF8AC81D8F8000000F02A
:1017C0000F00B0420CD2D8F8001021F00F013143C5
:1017D000C8F80010D8F8000000F00F00B04210D197
:1017E0002968614CC80741F2883A5AD06868DFF826
:1017F0007C91032808D0022820682DD040050028BD
:101800002CDB0120BDE8F08720688001F9D5E06875
:1018100000F00302E068C0F30310401C032A19D053
:10182000534A00BFB2FBF0F0E268C2F30622504315
:10183000E268C2F34162521C5200B0FBF2F048452C
:1018400017D9A06810F0F00F0CD0880711D5A86840
:1018500040B10EE0474AE5E78003D0E700F092F898
:10186000484506D9A06820F0F00040F08000A06054
:101870008027A068696820F003000843A060FFF794
:1018800051FD814606E000BFFFF74CFDA0EB0901CA
:1018900051453AD8A068696800F00C00B0EB810FA0
:1018A000F2D12868810714D5400703D5A06840F419
:1018B000E060A0602878000705D5A06820F460509B
:1018C00040F4E060A060A068A96820F0F000084340
:1018D00004E0802F03D1A06820F0F000A060D8F8C9
:1018E0000010404601F00F01B14216D9016821F005
:1018F0000F0131430160FFF715FD074607E000BF08
:10190000FFF710FDC11B514501D903207AE7D8F834
:10191000000000F00F00B042F2D12878400705D552
:10192000A068E96820F4E0600843A0602878000718
:1019300006D5A068296920F4605040EAC100A06083
:1019400000F020F8A1680C4AC1F30311515C01F0CA
:101950001F01C8400949086009480068BDE8F04710
:10196000FFF7FEBC002002400010024000B4C40497
:101970000024F40000366E01564A000810000020D2
:1019800004000020184910B58868C0F38102174888
:10199000012A0BD08A68164BC2F38102022A06D0B4
:1019A0008A68C2F38102032A03D0002010BD1846C2
:1019B00010BDCA6802F00304CA68C2F30312521CC5
:1019C000032C02D0B0FBF2F001E0B3FBF2F0CA68E6
:1019D000C968C2F306225043C1F34161491C490062
:1019E000B0FBF1F010BD0000001002400024F40034
:1019F00000366E012DE9F84304007AD02078F84DC6
:101A0000C00747D0A868E96800F00C0001F00301A6
:101A10000C2802D0082817D001E0032914D06068F0
:101A2000B0F5803F17D0B0F5A02F286817D020F46C
:101A300080302860286820F4802028606068E0B149
:101A4000FFF770FC064614E02868800322D5606822
:101A50000028D2D01EE0286840F48030EDE740F442
:101A600080202860F7E700BFFFF75CFC801B64283C
:101A700070D828688003F7D50CE0FFF753FC0646C2
:101A800005E000BFFFF74EFC801B6428F0D82868F3
:101A90008003F7D4207880074CD5A868E96800F067
:101AA0000C0001F003010C2802D004280DD001E045
:101AB00002290AD0E068002828682BD040F4807002
:101AC0002860FFF72FFC064619E02868400502D57C
:101AD000E068002891D06868217C20F0FE4040EA50
:101AE00001606860BF480068FFF73AFC002800D139
:101AF00020E072E1FFF716FC801B0228B8D82868A6
:101B00004005F7D56868217C20F0FE4040EA01607E
:101B100068600FE020F480702860FFF703FC064641
:101B200005E000BFFFF7FEFB801B0228A0D8286855
:101B30004005F7D42078000729D560690028D5F83A
:101B4000940013D040F00100C5F89400FFF7EAFBC1
:101B5000064606E090E000BFFFF7E4FB801B02288A
:101B600086D8D5F894008007F6D510E020F0010063
:101B7000C5F89400FFF7D6FB064604E0FFF7D2FB5A
:101B8000801B022878D8D5F894008007F6D42078F6
:101B9000400761D5A86D0026C00008D4A86D40F0AC
:101BA0008050A865A86D012600F0805000908E48F6
:101BB0000168C90511D40168804641F48071016053
:101BC000FFF7B0FB074604E0FFF7ACFBC01B0228A1
:101BD00052D8D8F80000C005F6D5A068012815D065
:101BE0000528D5F8900016D020F00100C5F8900027
:101BF000D5F8900020F00400C5F89000A06841F2EC
:101C00008838B8B1FFF78EFB07460EE0D5F8900094
:101C100040F00100F0E740F00400C5F89000F5E75F
:101C2000FFF780FBC11B414526D8D5F890008007FF
:101C3000F6D50CE0FFF776FB074604E0FFF772FBF2
:101C4000C11B414518D8D5F890008007F6D41EB1C5
:101C5000A86D20F08050A8652078800629D5A0695D
:101C60000028D5F8980013D040F00100C5F898007E
:101C7000FFF758FB064606E075E000BFFFF752FB92
:101C8000801B02286FD8D5F898008007F6D510E0A1
:101C900020F00100C5F89800FFF744FB064604E079
:101CA000FFF740FB801B02285DD8D5F8980080071D
:101CB000F6D4E069F0B3A968C1F3810103295DD0CE
:101CC0000228286820F08070286003D0FFF72AFBE4
:101CD00004464BE0FFF726FB064604E0FFF722FB35
:101CE000801B02283FD828688001F7D4F4E9080156
:101CF0006FF00F0202EB01110843218A52044908D8
:101D000002EB4151A26841EA02210843217D4FF0D4
:101D10007E42490802EB41610843217B40EAC160F1
:101D2000E968324A11400843E860286840F0807052
:101D3000286000E05EE0E86840F08070E860FFF74F
:101D4000F1FA044605E000BFFFF7ECFA001B022899
:101D500009D828688001F7D54CE000BFFFF7E2FA08
:101D6000001B022802D90320BDE8F88328688001FF
:101D7000F4D4E8681E490840E8603BE00128F3D04D
:101D8000E868226A00F00301914226D1616A00F0FE
:101D9000F0020901103991421FD1A26A00F4FE41FC
:101DA000B1EB022F19D194F82C2000F07841B1EB5F
:101DB000C26F12D1218E00F4C00249084905A1F575
:101DC0000011914209D194F8341000F0C060490824
:101DD0004906A1F1007181420CD00120C4E7000046
:101DE0000010024004000020007000400C809F01A1
:101DF000FCFFEEFE0020B7E710B500680B46416817
:101E00000D480140080CD870C1F304245C7001F047
:101E10003F049C70C1F34231197052B901F0D7FBF5
:101E2000D870587801F0D3FB5870987801F0CFFB48
:101E30009870002010BD00003FFFFF0010B50B465A
:101E400001688968596001680969C1F30E019960E8
:101E5000006801680D480140C1F305401870C1F3E6
:101E600006245C7001F07F049C70890DD97052B912
:101E700001F0ADFB1870587801F0A9FB5870987804
:101E800001F0A5FB9870002010BD00007F7F7F004F
:101E900070B504004FF0010040D094F8250028B937
:101EA000002084F82400204600F040F8022084F846
:101EB00025002068C168C943C90630D5CA214162DE
:101EC000216853204862204601F096FB10BB206831
:101ED0008169154A11408161216888696268A36936
:101EE000104322691A43104388612189E06840EA5F
:101EF000014021680861204601F0A3FB50B9D4E9F4
:101F00000721114322686369956925F060452B43D9
:101F1000194391612268FF21516208B170BD002010
:101F2000012184F8251070BDBFFF8FFB10B592B062
:101F3000044644216846FEF709FB104920688842A0
:101F400019D14FF400200090801210906846FFF7DE
:101F5000E7FA08B1FEF73CFC094850F8901F41F43D
:101F6000004140F83819016841F48061016000685F
:101F700000F48060119012B010BD000000280040F5
:101F80000010024070B5044690F824000B4601286A
:101F90001BD0012684F82460022084F82500B2B109
:101FA0009878D97840EA014558781978000240EAD3
:101FB000413005432168CA204862216853204862A5
:101FC000204601F019FBD0B120E0022070BD587806
:101FD000C10603D500F0EF000A305870D87801F040
:101FE000FFFA0504587801F0FBFA45EA00259878D5
:101FF00001F0F6FA0543187845EA4035DAE7084873
:10200000054020684560204601F01BFB2268FF2147
:10201000516208B984F82560002184F8241070BD4D
:102020003FFFFF002DE9F041044690F82400904660
:102030000D46012811D0012784F82470022084F86D
:1020400025002168CA204862216853204862204642
:1020500001F0D2FA002618B129E00220BDE8F08193
:102060002068B8F1000F80694FEA406024D0002852
:1020700000DBEE70A8782978EA7840EA01406978B8
:10208000090241EA82510843184908402168086062
:102090002068816921F480218161D5E90301084329
:1020A00021688A6910438861204601F0CAFA2268D3
:1020B000FF215162A0B115E0002800DBEE70287806
:1020C00001F08EFA0304687801F08AFA43EA0023EB
:1020D000A87801F085FA0343E87843EA8050D3E713
:1020E00084F8257084F82460B8E700007F7F7F00C3
:1020F00070B504460B482168C860FFF713F9054620
:102100004FF47A7607E000BFFFF70CF9401BB042AE
:1021100001D9032070BD2068C0688006F4D5002076
:1021200070BD00005F00010010B5401EB0F1807F5F
:1021300001D3012010BD4FF0E02460610F21601732
:1021400001F07AFD0020A06107202061002010BD71
:10215000704770477047704770477047F0B590F808
:102160003C20012A3AD0012580F83C50022280F818
:102170003D2003685A689C68194E1A4FB34201D03B
:10218000BB4204D122F4700C4A6842EA0C02DFF828
:1021900058C002EA0C02D1F800C04CEA020CC3F8A5
:1021A00004C00268B2420DD0B2F1804F0AD00F4B8A
:1021B0009A4207D00E4B9A4204D0BA4202D00D4B3D
:1021C0009A4204D1896824F080031943916080F811
:1021D0003D50002180F83C100846F0BD0220F0BDC3
:1021E000002C0140003401408FFFFFFD000400403F
:1021F0000008004000400140704710B5040003D0C3
:1022000094F83D0010B107E0012010BD002084F8D3
:102210003C00204600F022F8022084F83D00211DF9
:10222000206801F07DFA012084F8480084F83E001F
:1022300084F83F0084F8400084F8410084F84200AC
:1022400084F8430084F8440084F8450084F846008C
:1022500084F8470084F83D00002010BD08B50068F0
:102260000649884208D10648816D41F00401816524
:10227000806D00F00400009008BD000000080040E0
:102280000010024090F83D10012901D00120704754
:10229000022180F83D1000680F4988420ED0B0F14D
:1022A000804F0BD00D49884208D00D49884205D097
:1022B0000C49884202D00C49884207D181680B4AF8
:1022C0001140062906D0B1F5803F03D0016841F0E6
:1022D0000101016000207047002C01400004004013
:1022E00000080040003401400040014007000100A8
:1022F00070B5044690F83C000025012814D0012652
:1023000084F83C60022084F83D0022689068364BD7
:10231000184020F47F409060086870282ED010DCB0
:1023200010F00F0F03D021E04FF0020070BD4FEA14
:102330002012072A1AD2DFE802F0525252524A38CB
:1023400040002A4BC21A984249D009DCB0F5805FA0
:102350000DD0B0F5005F1CD0B0F1101F06D13EE0EB
:10236000102A3CD0202A3AD0502A38D0012584F8AF
:102370003D60002084F83C00284670BDCB68D1E960
:102380000121206801F037FA2068816841F0770167
:1023900009E0CB68D1E90121206801F02CFA20681E
:1023A000816841F480418160E1E7CA68496820683A
:1023B00001F0CCFB5021206806E0CA68496820681B
:1023C00001F00CFC6021206801F020FACFE7CA6818
:1023D0004968206801F0BAFB40212068F4E72268D0
:1023E00001461046F0E7000088FFCEFF20001000F5
:1023F00000684FF0804188420CD14A6B06480023A8
:1024000082634B6202EB8201044A0901B2FBF1F1E3
:1024100041630184704700001800002000B4C40428
:102420002DE9F041054690F83C0000260C460128B5
:1024300010D0012085F83C0072B1042A1CD0082A73
:102440002CD00C2A50D00126002085F83C003046C4
:10245000BDE8F0810220FBE7D4E90012E3682868B8
:1024600001F086FB2868816921F00C0181612868F0
:102470008169A26811430FE0D4E90012E36828687B
:1024800001F0BEFB2868816921F440618161286800
:102490008169A26841EA02218161D5E72868D4E90F
:1024A000002C277B036A016A21F480710162C169F3
:1024B00023F4206321F0030141EA0C0121F0F00C28
:1024C00039074FF420674CEA116107EA02221A43E8
:1024D000C16102622868C16921F00C01C1612868EC
:1024E000C169A26811432BE02868D4E90021E7689C
:1024F000036AD0F820C02CF4805CC0F820C0D0F86B
:102500001CC023F420432CF4407C4CEA012121F42C
:10251000704C4FF6FF7101EA07314FF4204741EA52
:102520000C0107EA02321A43C16102622868C169DC
:1025300021F44061C1612868C169A26841EA0221B1
:10254000C16181E710B5040003D094F83D0010B1DB
:1025500007E0012010BD002084F83C00204600F078
:1025600023F8022084F83D00211D206801F0D8F8EE
:10257000012084F8480084F83E0084F83F0084F885
:10258000400084F8410084F8420084F8430084F855
:10259000440084F8450084F8460084F8470084F835
:1025A0003D00002010BD000010B586B00446142187
:1025B0006846FDF7CBFF2068B0F1804F27D1154862
:1025C000816D41F001018165816D01F0010105918D
:1025D000C16C41F00101C164C06C694600F00100AA
:1025E00005904FF4004000900220019000200290DE
:1025F0000390012004904FF09040FEF765FD00220B
:1026000011461C20FEF7F4FE1C20FEF7E3FE06B088
:1026100010BD00000010024030B50446002571B125
:10262000042911D0082914D00C2917D0102918D04A
:1026300094F8430094F84720012817D114E094F847
:102640003E0094F84420F7E794F83F0094F84520C2
:10265000F2E794F8400094F84620EDE794F8410042
:10266000E8E794F84200E5E7012A01D0012030BDF7
:10267000022079B1042916D008291DD00C2949D08F
:1026800010294AD084F8430084F847000C2947D029
:1026900001253DE084F83E0084F844002068C268CB
:1026A00042F0020210E084F83F0084F84500206800
:1026B000C26842F0040207E084F8400084F8460053
:1026C0002068C26842F00802C2600122206801F05E
:1026D00085F81649206888420ED0B0F1804F0BD0A3
:1026E0001349884208D01349884205D012498842CC
:1026F00002D01249884207D18168114A1140062947
:1027000006D0B1F5803F03D0016841F001010160BE
:10271000284630BD84F84100B6E784F84200B3E7AC
:102720002068C26842F01002CEE70000002C014091
:102730000004004000080040003401400040014017
:10274000070001002DE9F04104460068C6680569EC
:102750004FF00007A90713D5B10711D5F91E016184
:1027600001202077206880698007204602D0FFF78B
:102770003FFE04E000F0E0F8204600F0B5F92777CE
:10278000680716D5700714D521686FF0040008613A
:10279000022020772068806910F4407F204602D014
:1027A000FFF726FE04E000F0C7F8204600F09CF991
:1027B0002777280715D5300713D521686FF0080053
:1027C0000861042020772068C0698007204602D075
:1027D000FFF70EFE04E000F0AFF8204600F084F9A9
:1027E0002777E80616D5F00614D521686FF010009B
:1027F0000861082020772068C06910F4407F2046D7
:1028000002D0FFF7F5FD04E000F096F8204600F056
:102810006BF92777E80708D0F00706D021686FF03A
:1028200001000861204600F060F9280601D4A804E0
:1028300008D5300606D521686FF40250086120469D
:10284000FFF787FCE80508D5300606D521686FF448
:10285000807008612046FFF77BFC680608D570068B
:1028600006D521686FF040000861204600F03EF96F
:10287000A80608D5B00606D521686FF020000861CB
:102880002046FFF767FCE80208D5F00206D521686C
:102890006FF4801008612046FFF75EFCA80208D59F
:1028A000B00206D521686FF4001008612046FFF7DA
:1028B00052FC680208D5700206D521686FF48000CA
:1028C00008612046FFF749FC28020AD5300208D5E6
:1028D00021686FF4000008612046BDE8F041FFF771
:1028E0008BBCBDE8F081000010B586B00446142111
:1028F0006846FDF72BFE0E492068884215D10D4829
:10290000C16C41F00101C164C06C002100F0010004
:102910000590802000900220CDE90101CDE903104F
:1029200069464FF09040FEF7CFFB06B010BD0000A7
:102930000004004000100240704770B5044690F853
:102940003C0000260D4601280BD0012084F83C00F5
:102950000C2A4AD007DC82B1042A20D0082A06D1EA
:1029600031E0022070BD102A53D0142A63D0012612
:10297000002084F83C00304670BD206800F050FF15
:102980002068816941F0080181612068816921F036
:1029900004018161206881692A69114311E020687E
:1029A00000F08CFF2068816941F40061816120683A
:1029B000816921F480618161206881692A6941EA25
:1029C00002218161D4E7206800F0C0FF2068C1695E
:1029D00041F00801C1612068C16921F00401C161B1
:1029E0002068C1692A69114311E0206800F0F6FFF0
:1029F0002068C16941F40061C1612068C16921F4A6
:102A00008061C1612068C1692A6941EA0221C1610E
:102A1000AEE7206801F02AF82068016D41F0080156
:102A200001652068016D21F0040101652068016DD8
:102A30002A69114311E0206801F050F82068016D07
:102A400041F4006101652068016D21F48061016538
:102A50002068016D2A6941EA0221016588E710B505
:102A6000040003D094F83D0010B107E0012010BD30
:102A7000002084F83C00204600F022F8022084F870
:102A80003D00211D206800F04BFE012084F8480025
:102A900084F83E0084F83F0084F8400084F8410048
:102AA00084F8420084F8430084F8440084F8450028
:102AB00084F8460084F8470084F83D00002010BDEB
:102AC00008B500680649884208D10648816D41F082
:102AD00002018165806D00F00200009008BD0000D9
:102AE0000004004000100240704770477047FEE746
:102AF00000B585B014216846FDF728FD4FF6FF703C
:102B0000009000200321CDE90201019069460248AE
:102B1000FEF7DAFA05B000BD0008004800B585B040
:102B200014216846FDF712FD4FF6FF70009001205A
:102B30000190032003900020029069460248FEF7AE
:102B4000C3FA05B000BD00000008004870B50024BD
:102B500006462146204600F003F900F041F94FF403
:102B60009635304600F010F9641CAC42F9D370BDC4
:102B700070B586B014216846FDF7E8FC1E48C16CAC
:102B800041F00401C164C16C01F004010591C16C04
:102B900041F00101C164C16C01F001010591C16CFA
:102BA00041F00201C164C06C032500F002000590F1
:102BB0004FF448700124002603958DE851006946C2
:102BC0000E48FEF781FA200203958DE851004FF080
:102BD000904469462046FEF777FAFFF79FFFA06909
:102BE00040F48070A06105481830016841F4087114
:102BF000016006B070BD00000010024000040048F3
:102C0000203AD2B2034B02EB420203EB021200F075
:102C100019B80000664A0008F0B50E4607460025C0
:102C200040F23F1407E021463846FFF7E9FF103C29
:102C30006D1CA4B2761C3278002A01D0142DF2D378
:102C4000F0BD00002DE9F04791468A460026044673
:102C500000F086F8DFF84080012700BF00F0C0F8E0
:102C60005FF0000539F8160007FA05F10842404602
:102C700001D1408800E0008800F086F86D1C102D1E
:102C8000F0D3641CE4B25146204600F069F8761C8B
:102C9000182EE3D3BDE8F0876800002010B5FFF7D9
:102CA00067FF002000F014F8084CA080A088A0F571
:102CB0000241303906D000F089FB002000F008F80E
:102CC000A08010BD00F0F9FAF7E7000068000020CE
:102CD00070B51D490A6842F400720A600A6842F43D
:102CE00080720A60184C103C226842F02002226078
:102CF000164A1060086840F02000086000BF00BF5E
:102D000000BF206840F020002060206840F4807000
:102D10002060FFF7EDFE4FF09041886A40F480702C
:102D2000886200BF00BF00BF0848001F006885B26E
:102D3000886940F480708861FFF7F0FE206840F4F5
:102D400000702060284670BD280400481408004820
:102D500001B5BDF800000149488008BD68000020A9
:102D600010B50C460146202000F068F82146BDE869
:102D70001040212000F062B801B5BDF80000014903
:102D8000088008BD68000020134A116841F40071F2
:102D90001160114910390B6843F480730B600B68A4
:102DA00043F020030B600D4B1860106840F02000CA
:102DB000106000BF00BF00BF086840F0200008603E
:102DC000086840F48070086000BF00BF00BF08685A
:102DD00040F4007008607047280400481408004858
:102DE0001449086840F400700860086840F4807076
:102DF000086010481038026842F0200202600E4B52
:102E000022221A600A6842F020020A6000BF00BF56
:102E100000BF016841F020010160016841F4807148
:102E2000016000BF00BF00BF016841F40071016094
:102E3000704700002804004814080048184B10B5DB
:102E40001A6842F400721A601A6842F480721A60BA
:102E5000134A103A146844F020041460114C2060A6
:102E6000186840F02000186000BF00BF00BF106865
:102E700040F020001060106840F480701060216005
:102E8000186840F02000186000BF00BF00BF106845
:102E900040F020001060106840F48070106010BD99
:102EA000280400481408004800EB8100006E00F080
:102EB000F84070478068C0F3C00070478068C0F376
:102EC000800070478068C0F380007047042303EAE5
:102ED000D15310B518444369C1F3045107248C4001
:102EE000A3438A401343436110BD00EB8100016E90
:102EF00021F00041114301667047000030B58BB0EE
:102F0000002408940994202168460A94FDF71EFBCA
:102F10001C484FF0A041042501604FF40031C0E986
:102F20000114C4600461C0E90545047744770121B8
:102F3000016280F82440C462046380F83840C463AE
:102F400080F84040FDF7C8FE08B1FDF741FC08A934
:102F50000C480894FDF73EFC08B1FDF739FC0A481F
:102F600000900620CDE901047F200594CDE90305FA
:102F700069460448FDF79AFC002801D0FDF728FCBB
:102F80000BB030BD700000200008302E30B589B085
:102F900020216846FDF7DAFA194818490024016033
:102FA0004902C0E90114C46004250461C0E9054573
:102FB000047744770121016280F82440C4620463ED
:102FC00080F83840C46380F84040FDF785FE08B1C2
:102FD000FDF7FEFB0B4800900620CDE901047F20A1
:102FE0000594CDE9030569460548FDF75FFC002817
:102FF00001D0FDF7EDFB09B030BD0000000100502D
:10300000DC0000200080F03EF0B587B01421684657
:10301000FDF79CFA2D48C16C41F00401C164C16CFC
:1030200001F004010591C16C41F02001C164C16C43
:1030300001F020010591C16C41F00101C164C16C36
:1030400001F001010591C16C41F00201C164C16C44
:1030500001F002010591C16C41F00801C164C06C2E
:103060001B4E00F008004FF47F44059001222146DA
:103070003046FEF752F9174F012204213846FEF779
:103080004CF90125CDE900450024029469463046FB
:103090000394FEF719F8CDE9005469464FF09040CB
:1030A0000295FEF711F807208DE8310069460A48BD
:1030B000FEF70AF804200090CDE90154694638462D
:1030C0000394FEF701F807B0F0BD000000100240C5
:1030D00000080048000C00480004004810B586B005
:1030E00014216846FDF732FA1E4800241C49059455
:1030F000C0E900147F218160FF21C0E903144FF073
:1031000080414461C0E906410462FEF7C1FE08B196
:10311000FDF75EFB8DF800408DF801408DF8024010
:1031200001940394002269460E480494FEF77AFF46
:1031300008B1FDF74DFB01208DF814008DF8150046
:103140008DF816008DF81740002205A90548FEF7F6
:1031500019FF002801D0FDF73BFB06B010BD0000B1
:10316000002800404801002010B588B0002418480D
:103170000594069404940094019402944FF08041C5
:10318000039401604F21C0E90114611EC0E90314DA
:103190008461FFF7D7F908B1FDF71AFB049404A97D
:1031A0000B480694FEF7DAFF08B1FDF711FB01208A
:1031B000CDE9004002940022694605480394FFF7D8
:1031C0002FF9002801D0FDF703FB08B010BD000067
:1031D0007001002010B58AB00024079408941C21C7
:1031E00068460994FDF7B2F916481549016040F2A6
:1031F0001F31C0E901146321C0E903148461FFF7A2
:103200002EFC08B1FDF7E4FA079407A90D480994CC
:10321000FEF7A4FF08B1FDF7DBFA6020CDE900045A
:1032200002940422694607480494FFF786FB08B11C
:10323000FDF7CEFA0348FFF757FB0AB010BD0000B8
:1032400000040040BC01002010B588B000241848DC
:1032500000940194029403940494059413490694F1
:10326000016041F63F71C0E901144FF6FF71C0E9FA
:1032700003148461FEF7C1FF08B1FDF7A9FA4FF40A
:103280008050009069460A48FFF732F808B1FDF710
:103290009FFA049404A906480694FEF75FFF0028ED
:1032A00001D0FDF795FA08B010BD000000080040FD
:1032B00008020020FEE7FEE7704730B5012100203C
:1032C000FFF7BCFD4FF47A70FDF774FA002101207E
:1032D000FFF7B4FD41F290711020FFF7AFFD4FF4FE
:1032E0001C516020FFF7AAFD01216120FFF7A6FD18
:1032F00002214620FFF7A2FD48F210011320FFF73C
:103300009DFD48F2FE011220FFF798FD4FF4A061E9
:103310000220FFF793FD41F230010320FFF78EFDFD
:1033200040F2033421463020FFF788FD214631204A
:10333000FFF784FD21463220FFF780FDE51E294678
:103340003320FFF77BFD03213420FFF777FD214673
:103350003520FFF773FD14213620FFF76FFD21465E
:103360003720FFF76BFD21463820FFF767FD214628
:103370003920FFF763FD29463A20FFF75FFD03215F
:103380003B20FFF75BFD21463C20FFF757FD4FF444
:10339000A0513D20FFF752FD4FF400719220FFF73E
:1033A0004DFD21469320FFF749FD40F60D01902089
:1033B000FFF744FD41F218010320FFF73FFDBDE890
:1033C000304040F273110720FFF738BD10B543F2CB
:1033D0000801E320FFF732FD1221E720FFF72EFD61
:1033E00041F23121EF20FFF729FD00210120FFF7F5
:1033F00025FD4FF4E0610220FFF720FD41F230018E
:103400000320FFF71BFD00210420FFF717FD40F20A
:1034100007210820FFF712FD00210920FFF70EFD0C
:1034200000210A20FFF70AFD00210C20FFF706FD0E
:1034300000210D20FFF702FD00210F20FFF7FEFC09
:1034400000211020FFF7FAFC07211120FFF7F6FCFE
:1034500000211220FFF7F2FC00211320FFF7EEFC01
:10346000C820FDF71FFE41F290611020FFF7E6FC37
:1034700040F227211120FFF7E1FC3220FDF712FE78
:103480001D211220FFF7DAFC3220FDF70BFE4FF46E
:1034900000611320FFF7D2FC14212920FFF7CEFC96
:1034A0000B212B20FFF7CAFC3220FDF7FBFD00218A
:1034B0002020FFF7C3FC00212120FFF7BFFC0721DC
:1034C0003020FFF7BBFC40F207713120FFF7B6FC5C
:1034D00006213220FFF7B2FC40F204713520FFF7DD
:1034E000ADFC41F604713620FFF7A8FC042137201B
:1034F000FFF7A4FC00213820FFF7A0FC40F2067182
:103500003920FFF79BFC40F201713C20FFF796FC4D
:103510000F213D20FFF792FC00215020FFF78EFC89
:10352000EF215120FFF78AFC00215220FFF786FC93
:1035300040F23F115320FFF781FC4FF41C516020F3
:10354000FFF77CFC01216120FFF778FC00216A2055
:10355000FFF774FC00218020FFF770FC0021812020
:10356000FFF76CFC00218220FFF768FC002183201C
:10357000FFF764FC00218420FFF760FC0021852018
:10358000FFF75CFC10219020FFF758FC00219220EF
:10359000FFF754FC03219320FFF750FC4FF4887190
:1035A0009520FFF74BFC00219720FFF747FC0021F7
:1035B0009820FFF743FC41F218010320FFF73EFC7F
:1035C000BDE8104040F273110720FFF737BC010936
:1035D00001EB810100F00F0000EB4100C0B2704729
:1035E0000022014602E00A39C9B2521C0A29FAD265
:1035F000100741EA106070472DE9F0410446006869
:103600000025C168490619D4C16841F08001C16034
:10361000FDF788FE06464FF47A78032708E000BFDE
:10362000FDF780FE801B404502D9032584F82570F4
:103630002068C068400601D4032DF1D12846BDE8BA
:10364000F08170B5044600680025C16821F0800152
:10365000C160206881694FF00306890607D42046BF
:10366000FEF746FD98B184F8256003250FE08169D7
:1036700021F0200181612046FEF73AFD10B184F867
:10368000256003252068816941F020018161284679
:1036900070BD7047FDF74CBE10B594B03821684638
:1036A000FCF754FF14210EA8FCF750FF4FF40070F4
:1036B000FDF7D0FE092000904FF4803001900120EA
:1036C000059002200324CDE907041421CDE90A1056
:1036D0000C900D9009946846FEF78CF908B172B60B
:1036E000FEE70F20CDE90E040020109011901290FB
:1036F00002210EA8FEF758F8002801D072B6FEE7A6
:1037000014B010BD0248016841F4700101607047B7
:1037100088ED00E00148FFF715B8000070010020B7
:103720002DE9F0430268264B264D274E274C4FF0DB
:103730008049984207D0484505D0A84203D0B042FE
:1037400001D0A04203D122F070074A683A43204FCB
:10375000DFF880C0DFF8808098420DD048450BD05C
:10376000A84209D0B04207D0A04205D0B84203D049
:10377000604501D0404503D122F44075CA682A4310
:103780004D6922F080022A4302608A68C2620A6898
:103790008262984207D0A04205D0B84203D060456B
:1037A00001D0404501D109690163012141610169ED
:1037B000C90703D0016921F001010161BDE8F0836F
:1037C000002C01400004004000080040003401408B
:1037D00000400140004401400048014010B501F0A4
:1037E0001F030121046A99408C430462016A9A40D4
:1037F0001143016210BD10B5846842EA032224F42B
:103800007F440A432243826010BD00008268034B5C
:103810001A400A4342F00701816070478FFFCFFFD3
:103820002DE9F043056A026A22F001020262436850
:1038300082691C4C25F0020522400C6822F003022C
:1038400014438A68194E2A43174D194FDFF864C094
:10385000DFF86490A84207D0B04205D0B84203D048
:10386000604501D0484506D122F00808CA6842EAFE
:10387000080222F00402A84207D0B04205D0B842A4
:1038800003D0604501D0484505D14D6923F440730C
:103890001D438B692B434360846149684163026225
:1038A000BDE8F0838FFFFEFF002C01400034014093
:1038B000004001400044014000480140F0B5056A65
:1038C000026A22F01002026242688369194C1B4EA0
:1038D00023400C6823F4407343EA042425F02003BA
:1038E0008D6843EA0513144DA84201D0B04206D1B9
:1038F000CF6823F0800343EA071323F04003A84274
:103900000AD0B04208D00E4DA84205D00D4DA842B5
:1039100002D00D4DA84207D14D6922F4406242EA1F
:1039200085028D6942EA850242608461496881634B
:103930000362F0BDFF8FFFFE002C01400034014008
:10394000004001400044014000480140F0B5056AD4
:10395000026A22F4807202624368C269194C1B4EEB
:1039600022400C6822F00302144325F400728D6893
:1039700042EA0522144DA84201D0B04206D1CF68D8
:1039800022F4006242EA072222F48062A8420AD0AE
:10399000B04208D00E4DA84205D00E4DA84202D02C
:1039A0000D4DA84207D14D6923F4405343EA051356
:1039B0008D6943EA05134360C4614968C1630262CB
:1039C000F0BD00008FFFFEFF002C014000340140DD
:1039D000004001400044014000480140F0B5056A44
:1039E000026A22F4805202624268C369194C1B4E7B
:1039F00023400C6823F4407343EA042425F4005365
:103A00008D6843EA0533144DA84201D0B04206D177
:103A1000CF6823F4004343EA073323F48043A842EA
:103A20000AD0B04208D00E4DA84205D00D4DA84294
:103A300002D00D4DA84207D14D6922F4404242EA1E
:103A400085128D6942EA85124260C4614968016449
:103A50000362F0BDFF8FFFFE002C014000340140E7
:103A600000400140004401400048014030B5056A73
:103A7000026A22F4803202624268036D114C2340D4
:103A80000C681C4325F400330D8943EA05430E4DB1
:103A9000A8420BD00D4DA84208D00D4DA84205D02C
:103AA0000C4DA84202D00C4DA84204D14D6922F41D
:103AB000803242EA052242600465496881640362FB
:103AC00030BD00008FFFFEFF002C0140003401409C
:103AD00000400140004401400048014030B5046A04
:103AE000026A22F4801202624268036D114D24F4CE
:103AF00000142B400D6843EA05230D8944EA055460
:103B00000D4DA8420BD00D4DA84208D00C4DA84237
:103B100005D00C4DA84202D00B4DA84204D14D69EE
:103B200022F4802242EA8522426003654968C1642A
:103B3000046230BDFF8FFFFE002C014000340140C5
:103B400000400140004401400048014010B5036AB4
:103B5000046A24F001040462846924F0F00444EA55
:103B6000021423F00A020A438461026210BD0000BD
:103B700070B5056A046A24F0010404628469124E77
:103B8000B0420ED0B0F1804F0BD0104EB04208D0F2
:103B90000F4EB04205D00F4EB04202D00E4EB04292
:103BA00003D124F00304144301E044F001041A0794
:103BB00024F0F00444EA126225F00A0301F00A013D
:103BC00019438261016270BD002C01400004004075
:103BD00000080040003401400040014010B5036A75
:103BE000046A24F010040462846923F0A00324F41E
:103BF000704444EA023243EA01118261016210BD5D
:103C000030B5046A056A25F010050562856925F45A
:103C1000407545EA022222F470454FF6FF7202EA2F
:103C2000033224F0A0032A43A02404EA011119431B
:103C30008261016230BDFEE70907090E002804DB3E
:103C400000F1E02080F80014704700F00F0000F150
:103C5000E02080F8141D704730380A2801D2012076
:103C6000704700207047000010B50446FDF7A0F92A
:103C70002046FDF72DF800F065FD9FED071B53EC86
:103C8000112B00F0AFFD9FED061B53EC112B00F044
:103C9000A9FD41EC100B10BD6666666666660A40BB
:103CA000000000000000303F2DE9F041574D012198
:103CB0002846FDF72DFB564C0221E0722846FDF701
:103CC00027FB207304212846FDF722FB60730121A6
:103CD0004FF09040FDF71CFBA073E27A0021E2B99F
:103CE0002278012A19D122796271531CDBB2237127
:103CF000032B00D12171022A0FD1627AA57A02F139
:103D00000A03AB4209D8638BA68B03F57A77B742D7
:103D100003D8E2712572E3822683227912B1022A46
:103D200022D069E0207B3B4A10B96378012B08D090
:103D3000617844F6206350EA010504D0012808D0D8
:103D40005AE0116058E01068984255D3FFF7C6F961
:103D500052E079BB106898424ED2A07910B1002091
:103D6000A07149E00120FBE7227B4AB96278012A71
:103D700006D1E27B521CD2B2E273042A00D1E17375
:103D8000617BE1B9A178012919D1E17B31B1012928
:103D900008D002290AD0032911D10CE0617A491C0C
:103DA00061720CE0A17A0A31A17208E0618B643182
:103DB000618304E020E0A18B01F57A71A183D8B979
:103DC000E078012818D1E07B30B1012808D0022822
:103DD0000AD0032810D10BE0607A401E60720BE01D
:103DE000A07A0A38A07207E0608B6438608303E031
:103DF000A08BA0F57A70A083E07A2070207B6070A1
:103E0000607BA070A07BE070BDE8F08100040048FA
:103E1000180000202408004070B54B4C2DED048B99
:103E2000257AE679A5F10A0090FBF6F0401C00F037
:103E300072FCC4E91001208BE18AA0F57A7090FB36
:103E4000F1F0401C00F067FCC4E91201A0790028E1
:103E500069D1B5FBF6F020743C4D9FED3D8B28E019
:103E600000F070FC94ED100B41EC190B53EC102B8F
:103E700051EC180B00F0CAFA53EC192B00F0B2FC0D
:103E800041EC190B3448FFF7EFFE53EC192B51ECC2
:103E9000100B00F0A5FD09D2E079217C10FB01F0A8
:103EA0000A30C0B26074286031B108E0207C401E46
:103EB000207410F0FF00D3D10A206074286094EDC4
:103EC000120B51EC100B00F0F9FB204E2074234D27
:103ED000103E2EE000F036FC94ED120B41EC190B75
:103EE00053EC102B51EC180B00F090FA53EC192BFB
:103EF00000F078FC41EC190B1948FFF7B5FE53ECC4
:103F0000192B51EC100B00F06BFD0FD2E08A217CD5
:103F10006422484300F57A7080B2E0835043B5FBD9
:103F2000F0F0306041B1BDEC048B70BD207C401ED0
:103F3000207410F0FF00CDD14FF47A70E08309486F
:103F4000B5FBF0F03060EEE71800002038040040C8
:103F50006666666666660A40DC00002000B4C4043B
:103F600070000020A086010070B5154C4FF47A75E2
:103F70000122218CE08B0B1AAB4202DC431AAB42CC
:103F800002DDE274E38402E00023E3742375E37C42
:103F9000002B13D0237D002B10D12275E28C2285BB
:103FA0006084607CA074A1840649142201F114008D
:103FB000FCF79AFAD4F82A00C4F82E0070BD00006D
:103FC000180000205402002038B5FFF725FFFFF746
:103FD000CBFF754C207948B10128A0794FD000283B
:103FE000E07C7CD000287BD00620A5E0A0790028CA
:103FF000E07C04D008B1072005E0032003E008B10D
:10400000052000E0012000F097F900226749684888
:10401000FDF714FF644900222A316548FDF7ECFEE4
:1040200064A11820FEF7F8FD6048E28B67A12830F4
:10403000FCF746F95D4948202831FEF7EDFD5B4865
:10404000627C68A12830FCF73BF958496020283190
:10405000FEF7E2FD5548228C68A12830FCF730F9C4
:10406000524978202831FEF7D7FDA07928B169A1FF
:104070009020FEF7D1FD4D484EE06CA1F8E70028F6
:10408000E07C04D008B1062003E0022001E000B18A
:10409000042000F051F9002244494548FDF7CEFEC6
:1040A000414900222A314248FDF7A6FE65A11820A9
:1040B000FEF7B2FD3D48628C44A12830FCF700F9C0
:1040C0003A4948202831FEF7A7FD3848A27C63A171
:1040D0002830FCF7F5F835492831602001E029E067
:1040E00026E0FEF799FD3148A28C44A12830FCF768
:1040F000E7F82E4978202831FEF78EFD2B48B4F9D9
:1041000028205CA12830FCF7DBF8284990202831D2
:10411000FEF782FD254814308178009143780278BB
:1041200022485AA12830FCF7CBF82049283136E044
:10413000022001E000B1042000F0FEF85AA118208E
:10414000FEF76AFD1948627A5DA12830FCF7B8F8DD
:10415000164948202831FEF75FFD1448A27A5EA177
:104160002830FCF7ADF8114960202831FEF754FDE6
:104170000E48628B5EA12830FCF7A2F80B4978202C
:104180002831FEF749FD0948A28B5FA12830FCF7D2
:1041900097F8064990202831FEF73EFD60A1BDE862
:1041A0003840A820FEF738BD180000205402002037
:1041B000480100202020202020202050574D202082
:1041C000202020202020202000000000202020434C
:1041D000463D253164487A202020202020202020C0
:1041E0002020000020202043443D25316425252047
:1041F00020202020202020202020200020202044BB
:10420000463D253164487A2020202020202020208F
:104210002020000020202053543D4C4F434B2020B1
:1042200020202020202020200000000020202053DB
:10423000543D554E4C4F434B202020202020202021
:104240000000000020202020202020524543442050
:1042500020202020202020200000000020202043BB
:10426000443D2531642525202020202020202020A9
:104270002020000020202058463D253164487A2027
:104280002020202020202020202000002020202569
:1042900030326448253032644D253032645320205A
:1042A000202020202020000020202020202020501E
:1042B000415241202020202020202020000000000A
:1042C00020202044533D2531642525202020202016
:1042D000202020202020200020202044523D253175
:1042E00064252520202020202020202020202000A0
:1042F00020202046533D253164487A20202020206C
:10430000202020202020000020202046523D253162
:1043100064487A2020202020202020202020000017
:10432000202020202020202020202020202020208D
:10433000202020200000000070B5124D044601220C
:104340004FF47F412846FCF7E8FF0F4E012204217D
:104350003046FCF7E2FF002204213046FCF7DDFF87
:10436000210200222846FCF7D8FF01220421304612
:10437000FCF7D3FF3046BDE8704000220421FCF773
:10438000CCBF000000080048000C0048FCF7D8FF34
:10439000FFF782F9FEF738FEFEF7A0FEFEF71AFFE0
:1043A000FEF7ACFDFEF7F2FDFEF7DEFEFEF74CFF7A
:1043B000FEF774FC0020FEF7CBFC4FF6FF70FEF713
:1043C000DBFC0020FEF7C2FB0748FDF75BFF074858
:1043D000FDF758FF00210648FEF71EF9FFF764FCC1
:1043E000FFF7F2FDFAE70000BC0100200802002000
:1043F00070010020491058BFC1F140415B1058BF07
:10440000C3F140438B42EFF3008070472DE9C04178
:1044100030B4DFF8A0C23CEA111418BF3CEA131410
:1044200000F0EC8081EA03051CEA111444EAD5741B
:1044300018BF1CEA131500F0C780A4EB05044FF069
:10444000004545EAC12145EAC32341EA505143EA08
:10445000525304F17F74994204F500344FEAC020AE
:104460004FEAC22208BF904200F09C804FEA1365D9
:104470000FF24016765D4FEA134506FB05F7C7F1CC
:10448000807706FB07F74FEAD737A7FB036876422A
:10449000C8F58038A7FB06CE38BFA8F1010807FB96
:1044A00008E64FF0000EA6FB028CE6FB03CEDCF123
:1044B000000CCEF1004E38BFAEF1010EA6FB0C5839
:1044C0004FF000074FF00005E6FB0E87A1FB08C682
:1044D000A0FB07CE16EB0E0645F10005E1FB0765D4
:1044E00015F1E04E7EBFA4F580345FEA46066D41CB
:1044F00016F1800745F100054FEA17274FEA0666D7
:1045000047EA0567A6F1DE46B6F1805F4FEA15255A
:104510001FD9384624F0010C05EBC471BCF1FE6FC5
:1045200001EB0C1102D8F0BCBDE8008124425CBF55
:1045300001F5801E9EEAC47F02D4F0BCBDE8008174
:10454000244238D4F0BCA1F1C041BDE8004100F0E4
:1045500041BA4FEAD22242EA43524FEAD323A7FBA1
:1045600002864FEAD02040EA415007FB03661EEA6C
:104570000E0F4FEAD12105FB026658BFA6EB00568D
:10458000B6EB00564FEA520E4EEAC37E18EB0E0E03
:1045900056EB530EBDD518EB02085E417F1C55F15A
:1045A0000005B6E74FF480154FF000074FF0000606
:1045B0004FF00008ADE7F0BC4FF0000001F1C04142
:1045C00001F00041BDE8008111EA0C1F0CEA13154F
:1045D00000D00CE013EA0C1F00F025804FF0000023
:1045E000F0BC81EA030101F00041BDE80081F0BCAC
:1045F000BDE8004181EA030100F0ECB9F0BCBDE880
:10460000004170B500F098F9097EFC3E00F007B853
:1046100081EA03014FF0000001F00041704781EA98
:10462000030100F0D7B9F0BCBDE800414FF0000035
:1046300021497047FFFDFBF9F7F5F4F2F0EEEDEBE1
:10464000E9E8E6E4E3E1E0DEDDDBDAD8D7D5D4D390
:10465000D1D0CFCDCCCBCAC8C7C6C5C4C2C1C0BFDC
:10466000BEBDBCBBBAB9B8B7B6B5B4B3B2B1B0AFE2
:10467000AEADACABAAA9A8A8A7A6A5A4A3A3A2A1C6
:10468000A09F9F9E9D9C9C9B9A9999989797969581
:1046900095949393929191908F8F8E8E8D8C8C8B1D
:1046A0008B8A8989888887878685858484838382A5
:1046B000828181800000FF070000F87F4FEA1153DC
:1046C000A3F58063D3F11E03A8BFD3F1200C08DB50
:1046D0004FF0004242EAC12252EA505232FA03F04D
:1046E000704709420BD4102BC4BF0020704703F55C
:1046F000787CBCF1FF3F05D04FF0FF3070474FF0A2
:104700000000704770B500F017F900BF499224808F
:1047100000207047F0E710F0004248BF4042B0FA76
:1047200080F310FA03F10AD0C3F11D0303F580638F
:104730004FEA415002EB035202EBD12170474FF098
:1047400000007047B0FA80F310FA03F10AD0C3F109
:104750001D0303F580634FEA41504FEA035202EB19
:10476000D12170474FF000007047000051EA030C60
:1047700017D41CF5801F58BFBCF5801F00F10680C0
:10478000994218BF704708BF9042704707D711F58C
:10479000801F58BF13F5801F19D499427047894272
:1047A00070471CF5801F08D5BCF5801FF7D58B42DC
:1047B00018BF704708BF824270474FF4001C1CEBC3
:1047C000410F38BF1CEB430F01D28B42704770B5CD
:1047D00000F0B2F8922449004FF000514FF080539E
:1047E000FFF708BEDFF848C170B51CEA111E1EBFF6
:1047F0001CEA13159EEA0C0F95EA0C0F00F06F806F
:1048000081EA030423EA4C134EEAD47E21EA4C11D8
:1048100041F4801143F48013AE44A1FB024CA0FB91
:104820000365AEF17F7E361955EB0C05A1FB034CF9
:104830004CF10003A0FB021C16EB0C06654153F182
:104840000003094218BF46F0010613F4007F0BD1A4
:104850004FEA03314FEA0530340341EA155140EA8B
:1048600016506FF003020AE04FEAC3214FEAC52059
:10487000F40241EA555140EA56506FF0020202EB51
:104880002E4201EB025585EACE710AD05FEA440C54
:1048900018BF24F0004450F1000041F1000120EA6B
:1048A000D47040F2FE7C624500D270BDA84214BFB5
:1048B0004FF080444FF04044002E08BF0024BEF16A
:1048C000806FA8BFA1F1C041BDE8704080F2828036
:1048D0004FF0000001F1C04101F0004170479EEA35
:1048E0000C0F0CEA131518BF95EA0C0F06D04FF009
:1048F000000081EA030E0EF0004170BD00F01CF8CC
:104900008900013E00F007B800F009B84FEA430CF7
:104910005FEA5C5C08D081EA030100F05BB84FEA13
:10492000410C5FEA5C5CF6D14FF000000149704732
:104930000000FF070000F87F0EF1020E2EF0030EBC
:104940005EF8046B364205D4012A43EB030515F5E6
:10495000001F12D8012841EB010C1CF5001F0CD8D8
:104960000ED14FEAD17C15F5001F0CEB4C0C0CF16D
:10497000020C08BF4CEBD37C04E04FF0080C01E0C4
:104980004FEAD37C0CEB4C0526FA05F606F0070639
:10499000B6F1040C06D20EEB860CBDE870404CF06C
:1049A000010C6047DFE80CF0090B02024FF00041F8
:1049B0004FF00000A1F5002170BD194610460128F6
:1049C00051EB010418BFD4F5001484BF002001F09E
:1049D000004170BD0808A0F500114FEA3101704791
:1049E00053EA010C17D41CF5801F58BFBCF5801F7B
:1049F00000F106808B4218BF704708BF82427047A3
:104A000007D713F5801F58BF11F5801F19D48B42AB
:104A100070479B4270471CF5801F08D5BCF5801F6E
:104A2000F7D5994218BF704708BF904270474FF4BE
:104A3000001C1CEB430F38BF1CEB410F01D2994205
:104A400070470FB40CBC03BCFFF7C1BE4FF0407001
:104A5000E1EE100A704700000000000000000102B3
:104A60000304060708090000000000000000000021
:104A70000000000000000000000000000000000036
:104A80000000000000000000000000000000000026
:104A90000000000000000000800180018001800112
:104AA00080018001800180018001800180018001FE
:104AB0008001000000008001800100000000000073
:104AC00000000000000000000000CC00CC00CC0082
:104AD000CC00CC00CC000000000000000000000072
:104AE00000000000000000000000000000000000C6
:104AF00000000000000000000000000000000000B6
:104B00000000600C600C600C30063006FE1FFE1FBB
:104B1000300638071803FE1FFE1F180318038C0108
:104B20008C018C01000000008000E003F80F9C0E57
:104B30008C1C8C188C009800F801E007800E801CFB
:104B40008C188C189C18B80CF00FE00380008000C3
:104B50000000000000000000000000000E181B0C08
:104B6000110C11061106110311039B018E01C038AF
:104B7000C06C60446044304430441844186C0C38B5
:104B80000000000000000000E001F00338071806F4
:104B900018063003F001F000F8009C310E33061EB9
:104BA000061C061C063FFC73F021000000000000FC
:104BB000000000000000000000000C000C000C00D1
:104BC0000C000C000C0000000000000000000000C1
:104BD00000000000000000000000000000000000D5
:104BE0000000000000000000000200038001C0007F
:104BF000C000600060003000300030003000300045
:104C000030003000300060006000C000C000800153
:104C1000000300020000000020006000C0008001CE
:104C200080010003000300060006000600060006DF
:104C30000006000600060003000380018001C0009A
:104C400060002000000000000000000000000000E4
:104C50000000C000C000D806F807E00130033807A4
:104C60000000000000000000000000000000000044
:104C70000000000000000000000000000000000034
:104C8000000080018001800180018001FC3FFC3F29
:104C9000800180018001800180010000000000008F
:104CA0000000000000000000000000000000000004
:104CB00000000000000000000000000000000000F4
:104CC00000000000000000008001800100010001E0
:104CD0008000000000000000000000000000000054
:104CE0000000000000000000000000000000E007DD
:104CF000E0070000000000000000000000000000CD
:104D000000000000000000000000000000000000A3
:104D10000000000000000000000000000000000093
:104D20000000000000000000C000C0000000000003
:104D30000000000000000000000C000C000600064F
:104D4000000600030003000380038001800180014E
:104D5000C000C000C0006000600000000000000053
:104D60000000000000000000E003F007380E180CFF
:104D70000C180C180C180C180C180C180C180C1813
:104D80000C18180C380EF007E003000000000000BB
:104D9000000000000000000000018001C001F001DF
:104DA00098018801800180018001800180018001DB
:104DB000800180018001800180010000000000006E
:104DC0000000000000000000E003F80F180C0C18B1
:104DD0000C1800180018000C000600038001C00029
:104DE000600030001800FC1FFC1F000000000000E5
:104DF0000000000000000000E001F807180E0C0C95
:104E00000C0C000C0006C003C007000C00180018B2
:104E10000C180C18180CF807E00300000000000044
:104E20000000000000000000000C000E000F000F4A
:104E3000800DC00C600C600C300C180C0C0CFC3F8E
:104E4000FC3F000C000C000C000C000000000000F7
:104E50000000000000000000F80FF80F1800180014
:104E60000C00EC03FC071C0E001C001800180018B6
:104E70000C181C0C180EF807E003000000000000DE
:104E80000000000000000000C007F00F381C1818D8
:104E900018000C00CC03EC0F3C0E1C1C0C180C185A
:104EA0000C18181C380EF007E0030000000000008A
:104EB0000000000000000000FC1FFC1F000C0006AA
:104EC0000006000380038001C001C000E000600014
:104ED0006000700030003000300000000000000072
:104EE0000000000000000000E003F007380E180C7E
:104EF000180C180C3806F007F007180C0C180C18D2
:104F00000C180C18380CF80FE0030000000000002B
:104F10000000000000000000E003F007380E1C0C49
:104F20000C180C180C181C1C381EF81BE019001863
:104F3000000C000C1C0EF807F0010000000000003F
:104F40000000000000000000000000000000000061
:104F5000000080018001000000000000000000004F
:104F6000000000000000800180010000000000003F
:104F70000000000000000000000000000000000031
:104F8000000080018001000000000000000000001F
:104F9000000000000000800180010001000180008D
:104FA0000000000000000000000000000000000001
:104FB0000000000000000010001C800FE003F8005B
:104FC0001800F800E003800F001C00100000000033
:104FD00000000000000000000000000000000000D1
:104FE000000000000000F81F000000000000F81F93
:104FF00000000000000000000000000000000000B1
:1050000000000000000000000000000000000000A0
:1050100000000000000008003800F001C007001F79
:105020000018001FC007F001380008000000000051
:105030000000000000000000E003F80F180C0C183E
:105040000C180018000C000600038001C000C0000E
:10505000C00000000000C000C00000000000000010
:1050600000000000000000000000E0071818042005
:10507000C229224A1144094409440944092211134E
:10508000E20C024004201818E007000000000000B5
:10509000000000000000000080038003C006C0067E
:1050A000C006600C600C301830183018F83FF83F1C
:1050B0001C700C600C6006C006C000000000000000
:1050C0000000000000000000FC03FC0F0C0C0C189A
:1050D0000C180C180C0CFC07FC0F0C180C300C30C6
:1050E0000C300C300C18FC1FFC0700000000000006
:1050F0000000000000000000C007F01F38381C301E
:105100000C70066006000600060006000600060099
:1051100006600C701C30F01FE0070000000000006B
:105120000000000000000000FE03FE0F060E06183F
:1051300006180630063006300630063006300630D7
:1051400006180618060EFE0FFE0300000000000001
:105150000000000000000000FC3FFC3F0C000C00C1
:105160000C000C000C00FC1FFC1F0C000C000C00C1
:105170000C000C000C00FC3FFC3F00000000000095
:105180000000000000000000F83FF83F1800180081
:10519000180018001800F81FF81F18001800180051
:1051A0001800180018001800180000000000000087
:1051B0000000000000000000E00FF83F3C780E60A7
:1051C00006E007C00300030003FE03FE03C007C0A0
:1051D00006C00EC03CF0F83FE00F000000000000E9
:1051E00000000000000000000C300C300C300C30CF
:1051F0000C300C300C30FC3FFC3F0C300C300C30D1
:105200000C300C300C300C300C3000000000000072
:10521000000000000000000080018001800180018A
:105220008001800180018001800180018001800176
:1052300080018001800180018001000000000000E9
:105240000000000000000000000600060006000646
:10525000000600060006000600060006000600061E
:10526000180618063807F003E001000000000000EF
:10527000000000000000000006300618060C0606BC
:1052800006038601C60066007600DE008E01060376
:105290000606060C06180630066000000000000036
:1052A000000000000000000018001800180018009E
:1052B000180018001800180018001800180018002E
:1052C000180018001800F81FF81F00000000000068
:1052D00000000000000000000EE01EF01EF01EF0B6
:1052E00036D836D836D836D866CC66CC66CCC6C664
:1052F000C6C6C6C6C6C686C386C300000000000078
:1053000000000000000000000C301C303C303C303D
:105310006C306C30CC30CC308C310C330C330C36E0
:105320000C360C3C0C3C0C380C300000000000002B
:105330000000000000000000E007F81F1C380E709D
:10534000066003C003C003C003C003C003C003C0A2
:1053500006600E701C38F81FE00700000000000017
:105360000000000000000000FC0FFC1F0C380C3097
:105370000C300C300C300C18FC1FFC070C000C001F
:105380000C000C000C000C000C00000000000000E1
:105390000000000000000000E007F81F1C380E703D
:1053A000066003E003C003C003C003C003C007E0FE
:1053B00006630E3F1C3CF83FE0F700C00000000011
:1053C0000000000000000000FE0FFE1F063806303F
:1053D000063006300638FE1FFE0706030606060CDA
:1053E00006180618063006300660000000000000AF
:1053F0000000000000000000E003F80F1C0C0C1877
:105400000C180C001C00F803E00F001E00380630DA
:1054100006300E301C1CF80FE007000000000000F2
:105420000000000000000000FE7FFE7F8001800180
:105430008001800180018001800180018001800164
:1054400080018001800180018001000000000000D7
:1054500000000000000000000C300C300C300C305C
:105460000C300C300C300C300C300C300C300C305C
:105470000C300C301818F81FE00700000000000086
:105480000000000000000000036006300630063017
:105490000C180C180C18180C180C380E30063006A6
:1054A000700760036003C001C0010000000000003D
:1054B00000000000000000000360C361C361C3611D
:1054C0006633663366336633663366336C1B6C1B38
:1054D0006C1B2C1A3C1E380E380E00000000000019
:1054E00000000000000000000FE00C7018303018C1
:1054F000700C600EC00780038003C003E006700CD0
:10550000301C18180C300E6007E00000000000008E
:10551000000000000000000003C006600C301C38D2
:105520003818300C6006E007C0038001800180015C
:1055300080018001800180018001000000000000E6
:105540000000000000000000FC7FFC7F00600030D5
:105550000018000C000600038001C000600030004D
:1055600018000C000600FE7FFE7F00000000000017
:105570000000000000000000E003E00360006000A5
:10558000600060006000600060006000600060001B
:10559000600060006000600060006000600060000B
:1055A000E003E00300000000300030006000600015
:1055B0006000C000C000C000C00180018001800107
:1055C00000030003000300060006000000000000C6
:1055D0000000000000000000E003E00300030003FF
:1055E00000030003000300030003000300030003A3
:1055F0000003000300030003000300030003000393
:10560000E003E003000000000000C001C0016003EF
:105610006003600330063006180C180C0000000010
:10562000000000000000000000000000000000007A
:10563000000000000000000000000000000000006A
:10564000000000000000000000000000000000005A
:105650000000000000000000FFFFFFFF000000004E
:1056600000000000000000000C000C000C000C000A
:105670000C000C0000000000000000000000000012
:10568000000000000000000000000000000000001A
:10569000000000000000000000000000000000000A
:1056A0000000F003F8071C0C0C0C000FF00FF80CB6
:1056B0000C0C0C0C1C0FF80FF01800000000000080
:1056C000000000000000000018001800180018007A
:1056D0001800D803F80F380C1818181818181818CC
:1056E00018181818380CF80FD80300000000000034
:1056F00000000000000000000000000000000000AA
:105700000000C003F007300E180C18001800180035
:105710001800180C300EF007C00300000000000055
:105720000000000000000000001800180018001819
:105730000018C01BF01F301C18181818181818185B
:1057400018181818301CF01FC01B000000000000C3
:105750000000000000000000000000000000000049
:105760000000C003F00F300C1818F81FF81F1800C5
:1057700018003818301CF00FC007000000000000AF
:105780000000000000000000800FC00FC000C0003B
:10579000C000F007F007C000C000C000C000C0009B
:1057A000C000C000C000C000C00000000000000039
:1057B00000000000000000000000000000000000E9
:1057C0000000E00DF80F180E0C0C0C0C0C0C0C0C5F
:1057D0000C0C0C0C180EF80FE00D000C0C0C1C0639
:1057E000F807F00100000000180018001800180069
:1057F0001800D807F80F381C181818181818181897
:1058000018181818181818181818000000000000A8
:105810000000000000000000C000C0000000000008
:105820000000C000C000C000C000C000C000C00038
:10583000C000C000C000C000C000000000000000A8
:105840000000000000000000C000C00000000000D8
:105850000000C000C000C000C000C000C000C00008
:10586000C000C000C000C000C000C000C000C00038
:10587000F8007800000000000C000C000C000C0088
:105880000C000C0C0C060C038C01CC006C00FC0012
:105890009C018C030C030C060C0C000000000000A3
:1058A0000000000000000000C000C000C000C000F8
:1058B000C000C000C000C000C000C000C000C000E8
:1058C000C000C000C000C000C00000000000000018
:1058D00000000000000000000000000000000000C8
:1058E00000007C3CFF7EC7E383C183C183C183C1C9
:1058F00083C183C183C183C183C100000000000054
:105900000000000000000000000000000000000097
:1059100000009807F80F381C1818181818181818CD
:105920001818181818181818181800000000000087
:105930000000000000000000000000000000000067
:105940000000C003F00F300C181818181818181899
:1059500018181818300CF00FC003000000000000E9
:105960000000000000000000000000000000000037
:105970000000D803F80F380C181818181818181841
:1059800018181818380CF80FD80318001800180049
:1059900018001800000000000000000000000000D7
:1059A0000000C01BF01F301C181818181818181801
:1059B00018181818301CF01FC01B00180018001809
:1059C00000180018000000000000000000000000A7
:1059D0000000B007F00370003000300030003000ED
:1059E00030003000300030003000000000000000C7
:1059F00000000000000000000000000000000000A7
:105A00000000E003F003380E180C3800F003C00764
:105A1000000C180C380EF007E00300000000000036
:105A2000000000000000000000008000C000C00076
:105A3000C000F007F007C000C000C000C000C000F8
:105A4000C000C000C000C0078007000000000000C8
:105A50000000000000000000000000000000000046
:105A600000001818181818181818181818181818E6
:105A700018181818381CF01FE0190000000000006A
:105A80000000000000000000000000000000000016
:105A900000000C18180C180C180C300630063006D4
:105AA000600360036003C001C0010000000000004B
:105AB00000000000000000000000000000000000E6
:105AC0000000C141C141C3616363636363633636F0
:105AD000363636361C1C1C1C1C1C00000000000046
